:020000040800F2
:1000000000500020C5590008F5050008F705000854
:10001000F9050008FB050008FD05000800000000C8
:10002000000000000000000000000000FF050008C4
:10003000010600080000000003060008050600088D
:100040000D5A00080D5A00080D5A00080D5A0008F4
:100050000D0600080D5A00080D5A00080D5A000838
:100060000D5A00080D5A00080D5A00081506000820
:10007000250600080D5A0008350600084506000848
:1000800055060008650600080D5A00080D5A0008BC
:10009000750600080D5A00080D5A00080D5A000890
:1000A0008506000895060008A5060008B5060008A4
:1000B0000D5A00080D5A00080D5A0008C506000820
:1000C000D50600080D5A00080D5A0008E50600087C
:1000D0000D5A0008F50600080D5A00080D5A0008D0
:1000E0000D5A00080D5A00080D5A000800000000C3
:1000F0000000000000000000000000000000000000
:0C01000000000000000000005FF808F1A3
:10010C0010B5054C237833B9044B13B10448AFF345
:10011C0000800123237010BD280100200000000086
:10012C00585A000808B5034B1BB103490348AFF3F9
:10013C00008008BD000000002C010020585A000867
:10014C0030B595B000240C940D940F941094059434
:10015C0006940794089409940194029403940494CB
:10016C0001220A924FF480330B930E9202251195C3
:10017C0012934FF4E01313930AA802F0D3FA0F234F
:10018C000593069507944FF48063089309942946C8
:10019C0005A802F0EDFC10230193049401A802F0D1
:1001AC00DBFD15B030BD000038B502F06DFAFFF77D
:1001BC00C7FF00F049F805F0A5FB00F08BF800F044
:1001CC001DF900F07FF903F0E9FB03F05BFC03F091
:1001DC0069FA012003F03AFA0021084603F05CFBAF
:1001EC00154A002306CA154803F03EFB03F03EFAFD
:1001FC0003F0B0F901250024012003F027FA214671
:10020C00002003F049FB2C44E4B20B4A002306CA3D
:10021C000A4803F029FB03F029FA012002F058FAEE
:10022C00631EDBB2302BE7D96D42EDB24FF40051B7
:10023C00034802F00BFFDFE70C000020845A000893
:10024C00001001407047000030B589B000240494C0
:10025C000594069407941D4B9A6942F010029A611A
:10026C009A6902F010020092009A9A6942F02002F8
:10027C009A619A6902F020020192019A9A6942F0FD
:10028C0004029A619A6902F004020292029A9A6933
:10029C0042F008029A619B6903F008030393039BE5
:1002AC000B4D01224FF40051284602F0C9FE4FF4C9
:1002BC00005304930123059306940223079304A986
:1002CC00284602F0D3FD09B030BD00BF001002403B
:1002DC000010014008B50B480B4B03600B4B4360FF
:1002EC0000238360C3604FF48042026143618361E9
:1002FC00C361036200F0CEFC00B908BDFFF7A2FF9A
:10030C00FBE700BFA805002000540040801A06003F
:10031C0030B587B0002302930393049305930268CE
:10032C002F4B9A4201D007B030BD04462D4DAB691E
:10033C0043F00803AB61AB6903F008030093009B27
:10034C00C0230293122303930323059302A9264887
:10035C0002F08CFDEB6943F40013EB61EB6903F4E1
:10036C0000130193019B2148214B03600023436040
:10037C0083608022C260036143618361C36102F0C8
:10038C0069FE30BB194BA3635C621A481A4B0360BD
:10039C0010234360002383608022C26003614361A9
:1003AC008361C36102F056FEB0B9124B63635C62A9
:1003BC00002211461F2002F083FF1F2002F0B4FF21
:1003CC0000221146202002F07BFF202002F0ACFF1F
:1003DC00A9E7FFF737FFD5E7FFF734FFE5E700BFE5
:1003EC000054004000100240000C0140FC050020AD
:1003FC0080000240640500206C00024008B50E48E5
:10040C000E4B03604FF48273436000238360C36020
:10041C00036143614FF4007282610822C26103627E
:10042C00436283620A23C36201F020FB00B908BD5A
:10043C00FFF708FFFBE700BF40060020003001403B
:10044C0030B587B00023029303930493059302689D
:10045C001A4B9A4201D007B030BD03F560439A693C
:10046C0042F480529A619A6902F480520092009A86
:10047C009A6942F004029A619B6903F004030193A8
:10048C00019BA023029302230393032305930C4D9A
:10049C0002A9284602F0EAFC4023029300240394AC
:1004AC00049402A9284602F0E1FC224621462320AE
:1004BC0002F006FF232002F037FFCCE700300140AA
:1004CC000008014008B50A480A4B03604FF4E133B9
:1004DC00436000238360C36003610C22426183612B
:1004EC00C36101F085FF00B908BDFFF7ABFEFBE768
:1004FC00200700200038014070B586B0002302931D
:10050C000393049305930268314B9A4201D006B0D1
:10051C0070BD044603F558439A6942F480429A61CF
:10052C009A6902F480420092009A9A6942F004029D
:10053C009A619B6903F004030193019B4FF40073D0
:10054C0002930223039303230593224E02A9304600
:10055C0002F08CFC4FF48063029300250395049504
:10056C0002A9304602F082FC1B481C4B036045601C
:10057C0085608023C360056145618561C56102F0BA
:10058C0069FDF0B9144B63635C621548154B03604D
:10059C0010234360002383608022C26003614361A7
:1005AC008361C36102F056FD70B90D4B23635C622D
:1005BC0000221146252002F083FE252002F0B4FE15
:1005CC00A5E7FFF73FFEDDE7FFF73CFEEDE700BFD9
:1005DC000038014000080140DC06002058000240B1
:1005EC0098060020440002407047FEE7FEE7FEE755
:1005FC00FEE770477047704708B502F057F808BD22
:10060C0008B502F0FDFE08BD08B5024802F0A4FDD5
:10061C0008BD00BF9010002008B5024802F09CFDF8
:10062C0008BD00BF8807002008B5024802F094FD01
:10063C0008BD00BF9806002008B5024802F08CFDEA
:10064C0008BD00BFDC06002008B5024802F084FD9E
:10065C0008BD00BF6405002008B5024802F07CFD0F
:10066C0008BD00BFFC05002008B5024803F001FFDF
:10067C0008BD00BF300A002008B5024801F07EFB1F
:10068C0008BD00BFCC07002008B5024801F076FB7E
:10069C0008BD00BFCC07002008B5024801F06EFB76
:1006AC0008BD00BFCC07002008B5024801F066FB6E
:1006BC0008BD00BFCC07002008B5024801F006F8C1
:1006CC0008BD00BFA805002008B5024801F0B2F82B
:1006DC0008BD00BFA805002008B5024801F048F984
:1006EC0008BD00BF4006002008B5024801F00EFF0F
:1006FC0008BD00BF2007002000B583B0124B9A69DB
:10070C0042F001029A619A6902F001020092009A89
:10071C00DA6942F08052DA61DB6903F080530193AD
:10072C00019B00221146042002F0CAFD042002F0B5
:10073C00FBFD064A536823F0E06343F000735360FB
:10074C0003B05DF804FB00BF001002400000014044
:10075C0090F83E30DBB2402B13D00369B3F5804FD9
:10076C001ED0036D002B2DD0036D012B33D1436CA8
:10077C00C3F3C813026803F0060343F0F1031361DB
:10078C0029E0036D2BB9436C026803F0FE0313617F
:10079C0021E0436C026843F00103DBB213611AE001
:1007AC0090F83D30DBB2212B06D0436C026843F04D
:1007BC000103DBB213610EE0436C026803F0FE032D
:1007CC00136108E0436CC3F3C813026803F006031B
:1007DC0043F0F003136100207047436C0268DBB2F6
:1007EC0013610020704710B48DB090F83E30DAB22F
:1007FC00C16A046B90F83D30DBB2222B0BD0002386
:10080C000B9303685A690B929B690B930B9B00200B
:10081C000DB010BC7047036D0BB9402A17D0036D97
:10082C001BB90369B3F5404F19D0438D9BB2002B14
:10083C0025D1039303685A6903929A690392039A28
:10084C001A6842F400721A6000230365DFE7019313
:10085C0003685A6901929B690193019BD7E70023B6
:10086C00029303685A6902929A690292029A1A6870
:10087C0042F480721A60036D01330365C7E7438D40
:10088C009BB2012B1AD0438D9BB2022B6BD002680A
:10089C00136843F48063136003685A6812F4006FA2
:1008AC0003D05A6842F480525A6000230A930368BA
:1008BC005A690A929B690A930A9BC5E711F5803F16
:1008CC0016D004293DD008293BD0122C39D0C36A4C
:1008DC00022B30D00268136823F48063136000236A
:1008EC00069303685A6906929B690693069BABE7CD
:1008FC000268136823F48063136003685A6812F467
:10090C00006F0CD01A6822F480621A6000230493E2
:10091C0003685A6904929B690493049B94E7002230
:10092C0005925A6905929A690592059A1A6842F4D9
:10093C0000721A6088E70268136843F480631360DE
:10094C00CDE70268136823F48063136000230793D8
:10095C0003685A6907929A690792079A1A6842F4CF
:10096C0000721A6070E7C36A022B1BD0026813680E
:10097C0043F4006313600023089303685A690892D8
:10098C009A690892089A1A6822F480621A600368BD
:10099C005A6812F4006F3FF457AF5A6842F4805211
:1009AC005A6051E70268136843F4806313600023B4
:1009BC00099303685A6909929B690993099BE6E7B5
:1009CC00438D9BB24BB1436A5A1C426202681B783E
:1009DC001361438D013B9BB2438500207047438DCF
:1009EC009BB24BB103681A69436A591C41621A7075
:1009FC00438D013B9BB243850020704703685A69C5
:100A0C0012F4806F0DD06FF480625A61042303647A
:100A1C0000230363202280F83D2080F83C30012025
:100A2C00704700207047F8B506460C4617461D4621
:100A3C001EE02DB101F046FE069BC01AA84217D944
:100A4C0000233363202286F83D2086F83E3086F85A
:100A5C003C3003201AE033685B6924EA03039BB241
:100A6C00B3FA83F35B099F420FD1B5F1FF3FE0D19D
:100A7C00C4F30743012BEED033689B6924EA0303CC
:100A8C009BB2B3FA83F35B09EDE70020F8BDF8B530
:100A9C0004460D4616461F4632E01A6842F40072B0
:100AAC001A6023686FF480625A6104232364002364
:100ABC002363202284F83D2084F83C3001202DE073
:100ACC0026B101F0FFFDC01BB04219D900232363EE
:100ADC00202284F83D2084F83C3003201EE023685B
:100AEC005B6925EA03039BB2003318BF0123A3B152
:100AFC0023685A6912F4806FCFD1B6F1FF3FDFD172
:100B0C00C5F30743012BEAD023689B6925EA03034D
:100B1C009BB2003318BF0123E9E70020F8BD70B584
:100B2C0004460D46164623685B6913F0800F19D1F5
:100B3C002046FFF763FFB8B9B5F1FF3FF3D025B1FD
:100B4C0001F0C0FD801BA842EDD9236C43F02003BB
:100B5C00236400232363202284F83D2084F83C3056
:100B6C00032000E0002070BD0120FCE72DE9F041DE
:100B7C0084B004460E46174698460B9D02681368CF
:100B8C0043F48073136000950A9B00224FF001110F
:100B9C00FFF749FF002847D1236806F0FE061E61C7
:100BAC002B460A9A26492046FFF771FF20B1236C89
:100BBC00042B3ED1012338E00023039323685A69A8
:100BCC0003929B690393039B2A460A992046FFF7DD
:100BDC00A6FF034648B1236C042B2CD12268136862
:100BEC0043F40073136001231FE0B8F1010F13D01D
:100BFC0023683A0A1A612A460A992046FFF78FFFA2
:100C0C00034668B1236C042B17D12268136843F494
:100C1C0000731360012308E02268FFB2176104E03F
:100C2C002268FFB2176100E00323184604B0BDE848
:100C3C00F0810323F9E70323F7E70323F5E700BF6C
:100C4C000200010070B504460D46164623685B6928
:100C5C0013F0040F19D12046FFF7D0FEB8B9B5F147
:100C6C00FF3FF3D025B101F02DFD801BA842EDD93B
:100C7C00236C43F02003236400232363202284F895
:100C8C003D2084F83C30032000E0002070BD0120A2
:100C9C00FCE70000002800F0A28038B5044690F86C
:100CAC003D30002B4FD0242384F83D30226813684C
:100CBC0023F00103136002F02FF862684A4B9A424A
:100CCC0046D84A4B98428CBF00230123002B40F09E
:100CDC008880474BA3FB00239B0C22685360616800
:100CEC00414A91423AD801332268136261683E4B03
:100CFC0099423DD8431E4900B3FBF1F30133C3F3D2
:100D0C000B03042B38BF04232268D361E369216AE7
:100D1C0022680B4313602369E16822680B439360DC
:100D2C006369A16922680B43D3602268136843F09E
:100D3C000103136000202064202384F83D302063DD
:100D4C0084F83E0038BD80F83C30FFF7E1FAAAE7A2
:100D5C00284B98428CBF00230123B7E74FF49672BF
:100D6C0002FB03F3244AA2FB03239B090133BBE7D9
:100D7C00A368BBB9421E01EB4105B2FBF5F201328F
:100D8C00C2F30B02B2FA82F2520932BBC3B9013878
:100D9C0001EB4103B0FBF3F30133C3F30B0343F457
:100DAC000043B1E7421E01EB810505EB8505B2FB63
:100DBC00F5F20132C2F30B02B2FA82F25209E4E705
:100DCC00013801EB810303EB8303B0FBF3F3013335
:100DDC00C3F30B0343F4404396E7012394E701204C
:100DEC0070470120AEE700BFA08601007F841E0083
:100DFC0083DE1B43FF083D00D34D62102DE9F0410B
:100E0C0082B004460E461746984601F05BFC94F8F7
:100E1C003D30DBB2202B04D00223184602B0BDE8D3
:100E2C00F081054600901923012251492046FFF715
:100E3C00FAFD002840F0938094F83C30012B00F030
:100E4C009080012384F83C3023681A6812F0010F5B
:100E5C0003D11A6842F001021A602268136823F465
:100E6C0000631360212384F83D30402384F83E3026
:100E7C0000232364089B6362BDF8243063853D4BDB
:100E8C00E362638D238501950A9B009343463A46A2
:100E9C0031462046FFF76AFEB0B1236C042B04D117
:100EAC00002384F83C300123B7E7002384F83C305E
:100EBC000323B2E7236C042B55D12268136843F447
:100ECC00007313600123A8E7238D002B28D02A463A
:100EDC000A992046FFF723FE0028EBD1636A5A1CBF
:100EEC00626222681B781361238D013B9BB22385C0
:100EFC00628D013A92B262852268516911F0040F39
:100F0C00E2D0002BE0D0636A591C61621B7813613C
:100F1C00238D013B2385638D013B9BB26385D3E716
:100F2C002A460A992046FFF78DFE034648B1236CEA
:100F3C00042B1AD12268136843F400731360012345
:100F4C006BE721680A6842F400720A60202284F878
:100F5C003D20002284F83E2084F83C205DE70223EB
:100F6C005BE7022359E7032357E7032355E700BF49
:100F7C00020010000000FFFF70477047704708B573
:100F8C0090F83D30DAB2438D9BB273B1436A591C71
:100F9C00416201681B780B61438D013B9BB2438519
:100FAC00438D9BB20BB9292A01D0002008BD0268E1
:100FBC00536823F48063536021230363282380F850
:100FCC003D30FFF7DBFFF0E7704790F83D30DAB2C9
:100FDC00438D9BB2F3B110B503681969436A5C1C6D
:100FEC0044621970438D013B9BB24385438D9BB288
:100FFC000BB92A2A01D0002010BD0268536823F4D3
:10100C008063536022230363282380F83D30FFF76D
:10101C00DBFFF0E700207047704708B503689A695A
:10102C0012F0040F09D000219B6913F0800F06D039
:10103C00028BFFF7F1FF002008BD0121F4E7828944
:10104C00F7E7704708B590F83D30DBB2C26A042A66
:10105C0001D0082A01D1282B07D0212B1FD00368DF
:10106C006FF480625A61002008BD1A4BC36202689B
:10107C00536823F4E063536003686FF480625A6131
:10108C000268136823F48063136000230363202237
:10109C0080F83D2080F83E30FFF7D3FFE3E70D4B9F
:1010AC00C36221230363202380F83D30002380F8A2
:1010BC003E300268536823F4E063536003686FF4B6
:1010CC0080625A610268136823F480631360FFF72F
:1010DC0055FFC8E70000FFFF704710B590F83D3092
:1010EC00DBB290F83E20D2B2C46A018D09B9212B33
:1010FC0005D0212B3CD0402A38D0002010BD042C28
:10110C0004D0082C02D014F5803F19D10268536822
:10111C0023F4E06353600268136843F400731360B4
:10112C0000230363202380F83D3090F83E30DBB27F
:10113C00402B15D0002380F83E30FFF71DFFDCE775
:10114C000268536823F4E0635360112303630023A4
:10115C0080F83E30202380F83D30FFF70DFFCCE7C0
:10116C00002380F83E30FFF7B7FFC6E7222BC4D12F
:10117C00438D9BB27BB190F83E30DBB2402B10D04C
:10118C00436A5A1C426202681B781361438D013B0F
:10119C009BB24385B1E70268536823F480635360C4
:1011AC00ABE7036D9BB9C36C012B08D0836CC3F305
:1011BC00072302681361036D013303659DE7836C9C
:1011CC000268DBB21361036D0233036595E7036DAF
:1011DC00012B17D0036D022B8FD190F83D30DBB271
:1011EC00222B17D090F83D30DBB2212B85D1436AEE
:1011FC005A1C426202681B781361438D013B9BB2FF
:10120C0043857AE7836C0268DBB21361036D0133AB
:10121C00036572E70268136843F4807313606CE72C
:10122C0008B5C26A90F83D30DBB2212B01D000200A
:10123C0008BD438D9BB203BB042A04D0082A02D0FC
:10124C0012F5803F24D10268536823F4E0635360A5
:10125C000268136843F400731360002303632023B4
:10126C0080F83D3090F83E30DBB2402B20D000238C
:10127C0080F83E30FFF780FED9E7436A5A1C426281
:10128C0002681B781361438D013B9BB24385CEE70B
:10129C000268536823F4E063536011230363002353
:1012AC0080F83E30202380F83D30FFF765FEBEE726
:1012BC00002380F83E30FFF70FFFB8E7704708B502
:1012CC0090F83D30DBB2222B01D0002008BD438DBD
:1012DC009BB2032B29D8023B012B31D9C36A022BB9
:1012EC0047D00268136823F4806313600268536864
:1012FC0023F4E063536003681A69436A591C416222
:10130C001A70438D013B9BB24385202380F83D30FE
:10131C000023036390F83E30DBB2402B2FD0002328
:10132C0080F83E30FFF729FECFE703681A69436A5D
:10133C00591C41621A70438D013B9BB24385C4E733
:10134C00C36A022B0FD00268136823F48063136006
:10135C000268136843F4006313600268536823F453
:10136C0080635360B1E70268136843F480631360D1
:10137C00F3E70268136843F480631360B6E7002355
:10138C0080F83E30FFF79AFF9FE708B5C26A438D9D
:10139C009BB2032B0FD0438D9BB2022B22D0036840
:1013AC001A69436A591C41621A70438D013B9BB206
:1013BC004385002008BD042A04D0082A02D012F567
:1013CC00803F04D10268136823F4806313600368C0
:1013DC001A69436A591C41621A70438D013B9BB2D6
:1013EC004385E6E7042A17D0082A15D012F5803F6A
:1013FC0012D0022A0AD00268136823F480631360A7
:10140C000268536823F4407353600FE0026813685A
:10141C0043F480631360F3E70268536823F440736A
:10142C0053600268136843F40073136003681A690D
:10143C00436A591C41621A70438D013B9BB2438530
:10144C0003681A69436A591C41621A70438D013B47
:10145C009BB24385202380F83D300023036390F832
:10146C003E30DBB2402B05D0002380F83E30FFF736
:10147C0084FD9EE7002380F83E30FFF71FFF98E7BE
:10148C007047704710B5044690F83D30293B012B4E
:10149C0036D990F83D30DBB2602B07D003685B681F
:1014AC0013F4006F02D1202380F83D300023236316
:1014BC0084F83E302268136823F4006313602368B9
:1014CC005A6812F4006F3ED05A6822F400625A60D7
:1014DC00636B93F82120012A18D03A4A5A63606B47
:1014EC0001F0EEFD00283FD02268136823F00103C1
:1014FC001360202384F83D30606B436B984733E0D6
:10150C0000230363282380F83D30D3E7A36B2D4AD7
:10151C005A63A06B01F0D4FD30B323685A6912F002
:10152C00400F04D01A69636A591C61621A702268F0
:10153C00136823F001031360202384F83D30A06B63
:10154C00436B984710E094F83D20D2B2602A11D03A
:10155C005A6912F0400F04D01A69636A591C61620F
:10156C001A702046FFF78CFF94F83D30DBB2282B25
:10157C0017D010BD202284F83D20002222645A6925
:10158C0012F0400F04D01A69636A591C61621A7018
:10159C002268136823F0010313602046FFF771FFE4
:1015AC00E2E7236C13F0040FE3D0074BE362002354
:1015BC002363202284F83D2084F83E302046FFF738
:1015CC0040FDD6E71D1900080000FFFF10B582B0E2
:1015DC0090F83D30DBB201684A6822F4E0624A6060
:1015EC0000220192026851690191116841F00101D8
:1015FC001160019A01680A6822F480620A6001682D
:10160C004A6812F4006F14D090F83D20D2B2222A0E
:10161C000AD090F83D20D2B22A2A05D0426B12682B
:10162C00526892B2428504E0826B1268526892B2A0
:10163C004285428D92B2F2B14A6912F0040F08D081
:10164C000969426A541C44621170428D013A92B28B
:10165C0042850268516911F0400F08D01169426A45
:10166C00541C44621170428D013A92B24285026C54
:10167C0042F004020264026CA2B9282B15D02A2B6A
:10168C0013D0292B11D0026B222A01D0222B17D177
:10169C0000230363202280F83D2080F83E30FFF7C2
:1016AC0093FC0DE0FFF7EEFE0AE0074BC36200234C
:1016BC000363202280F83D2080F83E30FFF7C1FC08
:1016CC00002002B010BD00BF0000FFFFF8B50546BA
:1016DC0003689F695C695E6890F83E30DBB2102B42
:1016EC0025D0402B23D04C4B234013B116F4007F54
:1016FC006ED14A4B234013B116F4007F6BD1484B8B
:10170C003B40002B6FD0474B234033B116F4806F16
:10171C0003D0454B2340002B61D0434B234053B3A4
:10172C0016F4007F27D02846FFF74AF923E014F07F
:10173C00011F02D016F4007F1ED13C4B234013B185
:10174C0016F4007F1CD1344B234013B116F4007FE8
:10175C001AD1334B3B401BB3324B23402BB116F405
:10176C00806F02D0304B234093B12F4B234013B1E9
:10177C0016F4007F10D1F8BD2846FEF7E9FFE8E724
:10178C002846FFF72AF8E4E72846FFF72CF8E0E7AD
:10179C002846FFF7A2FCEEE72846FFF741FDEAE7F3
:1017AC00234B23402BB116F4806F02D01E4B2340E9
:1017BC0053B11D4B2340002BDDD016F4007FDAD043
:1017CC002846FFF7E2FDD6E72846FFF778FDD2E77B
:1017DC00FFF723FCCFE72846FFF7F8FECBE72846B8
:1017EC00FFF7CDFBC7E7124B23402BB116F4806FEC
:1017FC0002D00D4B234053B10B4B2340002BBAD0DE
:10180C0016F4007FB7D02846FFF7E9F8B3E728466F
:10181C00FFF7DBFBAFE700BF020001001000010087
:10182C000400100080000100040001000800010009
:10183C004000010070B5044603685D695E68334A78
:10184C0015420ED016F4807F0BD0026C42F00102D0
:10185C0002646FF480725A610268136843F40043A7
:10186C00136015F4813F0AD016F4807F07D0236CE7
:10187C0043F00203236423686FF400725A6115F479
:10188C00823F1AD016F4807F17D094F83E30DBB22A
:10189C00628D91B294F83D20D2B2206B202B1DD0DA
:1018AC00236C43F00403236494F83E30DBB2102B1A
:1018BC0022D023686FF480625A6115F4843F0AD0F9
:1018CC0016F4807F07D0236C43F00803236423684D
:1018DC006FF400625A61236CA3B970BD0029DFD18B
:1018EC00212A05D0292A03D0282AD9D12128D7D1B9
:1018FC002046FFF7A7FBE0E72268136843F4007368
:10190C001360D6E72046FFF7BDFDE6E700010100B6
:10191C0008B5406A0268136823F4806313600023DF
:10192C004385426B5363826B536390F83D30DBB25B
:10193C00602B0DD0202380F83D30002380F83E3002
:10194C000268136823F001031360FFF799FD08BDCB
:10195C00202380F83D30002380F83E300364026879
:10196C00136823F001031360FFF78BFDEFE770475B
:10197C0010B584B0044602685068936803F04101C6
:10198C0001290AD013F0020F0ED010F0800F0BD0EB
:10199C00636C2046984704B010BD10F0400FF1D096
:1019AC00236C20469847F6E713F0600FF3D010F045
:1019BC00200FF0D013F0400F0FD094F85110C9B293
:1019CC0003293DD0616D41F0040161650021019155
:1019DC00D168019191680191019913F0200F0CD0FD
:1019EC00636D43F0010363650023039393680393D2
:1019FC00136823F040031360039B636D002BCAD064
:101A0C002268536823F0E0035360012384F85130BB
:101A1C0010F0030F1CD02268536823F003035360AB
:101A2C00E36C23B10C4A5A63E06C01F049FBA36CE4
:101A3C00002BB0D0084A5A63A06C01F041FBAAE716
:101A4C0000230293D368029393680293029BA2E74C
:101A5C002046FFF78CFF9EE7691A000808B5406A1C
:101A6C000023C387C386FFF782FF08BD00283CD044
:101A7C0010B504460023836290F85130002B31D00E
:101A8C00022384F851302268136823F0400313605A
:101A9C006368A2681343E2681343226913436269C3
:101AAC001343A26902F400721343E2691343226ADE
:101ABC001343A16A22680B431360638B03F0040386
:101ACC00616A22680B4353602368E26A1A612268D8
:101ADC00D36923F40063D36100206065012384F88B
:101AEC00513010BDFEF7ACFCCAE701207047000076
:101AFC0070B4036A23F001030362036A42688469C9
:101B0C0024F073040D6845EA040623F002048B6884
:101B1C0023430D4DA84209D00B4DA8420DD0426075
:101B2C0086614A684263036270BC704723F0080305
:101B3C00CC68234323F00403EEE722F440724C6993
:101B4C0014438A692243EAE7002C014030B4036A4B
:101B5C0023F480730362036A4268C46924F073043B
:101B6C000D682C4323F400738D6843EA05230F4D55
:101B7C00A84209D00D4DA8420ED04260C4614A68FB
:101B8C00C263036230BC704723F40063CD6843EA40
:101B9C00052323F48063EDE722F440524D6942EAB9
:101BAC0005128D6942EA0512E7E700BF002C0140DF
:101BBC0030B4036A23F480530362036A4468C26935
:101BCC0022F4E6420D6842EA052223F400538D68A4
:101BDC0043EA0533074DA84206D04460C2614A6807
:101BEC000264036230BC704724F480444D6944EABB
:101BFC008514F2E7002C014010B4036A046A24F047
:101C0C0001040462846924F0F00444EA021223F013
:101C1C000A030B438261036210BC704710B4036A61
:101C2C0023F0100303628469036A24F4704444EAC9
:101C3C00023223F0A00343EA01138261036210BC59
:101C4C007047836823F0700341F0070119438160EA
:101C5C00704710B4846824F47F4442EA03230B4396
:101C6C002343836010BC7047704790F83C30012BC5
:101C7C007DD010B50446012380F83C30022380F857
:101C8C003D300268936823F47F4323F0770393601D
:101C9C000B68402B57D010D9702B3ED01FD8502B2F
:101CAC0047D0602B32D1CA6849680068FFF7B6FF8D
:101CBC0060212068FFF7C5FF28E0102B4DD008D914
:101CCC00202B4FD0302B21D130210068FFF7B9FFEA
:101CDC001CE0DBB900210068FFF7B3FF16E0B3F599
:101CEC00805F0ED0B3F5005F10D1CB684A6889686D
:101CFC000068FFF7AEFF2268936843F4804393605B
:101D0C0004E00268936823F007039360012384F8CE
:101D1C003D30002084F83C0010BDCB684A688968CF
:101D2C000068FFF796FF2268936843F0770393608F
:101D3C00ECE7CA6849680068FFF75EFF502120682D
:101D4C00FFF77FFFE2E7CA6849680068FFF754FFB6
:101D5C0040212068FFF775FFD8E710210068FFF7D6
:101D6C0070FFD3E720210068FFF76BFFCEE702205E
:101D7C0070477047704770477047704710B50446FE
:101D8C0003681A6912F0020F11D0DA6812F0020F10
:101D9C000DD06FF002021A610123037703689B696F
:101DAC0013F0030F70D0FFF7E6FF002323772368AF
:101DBC001A6912F0040F12D0DA6812F0040F0ED068
:101DCC006FF004021A610223237723689B6913F4D2
:101DDC00407F5FD02046FFF7CEFF00232377236898
:101DEC001A6912F0080F12D0DA6812F0080F0ED030
:101DFC006FF008021A61042323772368DB6913F060
:101E0C00030F4ED02046FFF7B6FF0023237723683D
:101E1C001A6912F0100F12D0DA6812F0100F0ED0EF
:101E2C006FF010021A61082323772368DB6913F41F
:101E3C00407F3DD02046FFF79EFF00232377236889
:101E4C001A6912F0010F03D0DA6812F0010F36D1C3
:101E5C0023681A6912F0800F03D0DA6812F0800F31
:101E6C0034D123681A6912F0400F03D0DA6812F0EB
:101E7C00400F32D123681A6912F0200F03D0DA68B0
:101E8C0012F0200F30D110BDFFF774FF2046FFF782
:101E9C0073FF8AE72046FFF76DFF2046FFF76CFFC4
:101EAC009BE72046FFF766FF2046FFF765FFACE790
:101EBC002046FFF75FFF2046FFF75EFFBDE76FF0A0
:101ECC0001021A612046FFF754FFC1E76FF0800250
:101EDC001A61204600F072F9C3E76FF040021A61F4
:101EEC002046FFF74AFFC5E76FF020021A61204633
:101EFC0000F063F9C7E7000003681B4A90420AD060
:101F0C00B0F1804F07D0A2F59432904203D002F585
:101F1C008062904203D123F070034A681343124A43
:101F2C0090420AD0B0F1804F07D0A2F59432904283
:101F3C0003D002F58062904203D123F44073CA6847
:101F4C00134323F080034A69134303608B68C36215
:101F5C000B688362044B984202D0012343617047A3
:101F6C000B690363F9E700BF002C0140A8B110B561
:101F7C00044690F83D305BB1022384F83D30211DBE
:101F8C002068FFF7B9FF012384F83D30002010BD15
:101F9C0080F83C3001F086FCEEE701207047A8B1D8
:101FAC0010B5044690F83D305BB1022384F83D3007
:101FBC00211D2068FFF7A0FF012384F83D3000208D
:101FCC0010BD80F83C30FFF74FFEEEE70120704764
:101FDC0030B4036A23F010030362036A4468826915
:101FEC0022F4E6420D6842EA052223F020038D68B4
:101FFC0043EA05130E4DA84209D00D4DA8420ED050
:10200C00446082614A688263036230BC704723F08B
:10201C008003CD6843EA051323F04003EDE724F475
:10202C0040644D6944EA85048D6944EA8504E7E718
:10203C00002C014038B590F83C30012B66D00D4691
:10204C000446012380F83C30022380F83D300C2AF2
:10205C001AD8DFE802F007191919201919193419BF
:10206C00191947000068FFF743FD2268936943F094
:10207C00080393612268936923F004039361226837
:10208C00936929690B439361012384F83D30002047
:10209C0084F83C0038BD0068FFF79AFF226893690A
:1020AC0043F4006393612268936923F48063936122
:1020BC0022689369296943EA01239361E4E7006884
:1020CC00FFF744FD2268D36943F00803D36122680B
:1020DC00D36923F00403D3612268D36929690B43C4
:1020EC00D361D1E70068FFF763FD2268D36943F43D
:1020FC000063D3612268D36923F48063D3612268BF
:10210C00D369296943EA0123D361BDE70220C1E702
:10211C0090F83C30012B25D0012380F83C30CB6863
:10212C0023F440738A68134323F480634A6813438F
:10213C0023F400630A68134323F480530A6913439E
:10214C0023F400534A69134323F480438A691343ED
:10215C0023F40043134302685364002380F83C309B
:10216C00184670470220704790F83C30012B22D063
:10217C0030B4012280F83C20022380F83D30046802
:10218C00636823F070036360046863680D682B4315
:10219C0063600468A36823F08003A3600468A368E9
:1021AC0049680B43A36080F83D20002380F83C3045
:1021BC00184630BC70470220704770477047026861
:1021CC00D36823F49073D3600268536923F001033E
:1021DC005361202380F83A30704790F83930DBB2E5
:1021EC00212B2AD18368B3F5805F16D0036A5A1C61
:1021FC0002621A7803685A60C38C013B9BB2C38499
:10220C00EBB90268D36823F08003D3600268D3680B
:10221C0043F04003D36000207047036A1B880268B8
:10222C00C3F30803536003691BB9036A02330362E7
:10223C00E2E7036A01330362DEE702207047002005
:10224C00704700002DE9F84305460268136923F432
:10225C004053C1680B43136183680269134342699D
:10226C0013430168CA6822F4B05222F00C021343E3
:10227C00CB600268536923F4407381690B4353614B
:10228C000268594B9A4257D000F046FD00EB800093
:10229C0000EB80006C68A400B0FBF4F4534FA7FB78
:1022AC0004346409260100F037FD00EB800000EBDC
:1022BC0080006C68A400B0FBF4F900F02DFD00EB7D
:1022CC00800000EB80006C68A400B0FBF4F4A7FB6A
:1022DC00043464094FF0640808FB1494240132346C
:1022EC00A7FB0434640904F0F004344400F014FD3A
:1022FC0000EB800000EB80006E68B600B0FBF6F6D9
:10230C0000F00AFD00EB800000EB80006B689B0086
:10231C00B0FBF3F0A7FB0030400908FB10684FEA54
:10232C00081808F13208A7FB0837C7F343172B68C6
:10233C0027449F60BDE8F88300F0FEFC00EB8000B2
:10234C0000EB80006C68A400B0FBF4F4274FA7FBF3
:10235C0004346409260100F0EFFC00EB800000EB74
:10236C0080006C68A400B0FBF4F900F0E5FC00EB15
:10237C00800000EB80006C68A400B0FBF4F4A7FBB9
:10238C00043464094FF0640808FB149424013234BB
:10239C00A7FB0434640904F0F004344400F0CCFCD2
:1023AC0000EB800000EB80006E68B600B0FBF6F628
:1023BC0000F0C2FC00EB800000EB80006B689B001F
:1023CC00B0FBF3F0A7FB0030400908FB10684FEAA4
:1023DC00081808F13208A7FB0837C7F343172B6816
:1023EC0027449F60A6E700BF003801401F85EB51D2
:1023FC0058B310B5044690F839300BB3242384F845
:10240C0039302268D36823F40053D3602046FFF799
:10241C0019FF2268136923F49043136122685369EE
:10242C0023F02A0353612268D36843F40053D3602A
:10243C000020E063202384F8393084F83A3010BD52
:10244C0080F83830FEF758F8D8E70120704770470D
:10245C0008B50168CB6823F04003CB60202380F8DB
:10246C003930FFF7F4FF002008BD704708B590F82D
:10247C003A30DBB2222B45D18368B3F5805F0ED0A6
:10248C00036903BB03685A68836A591C81621A701A
:10249C00C38D013B9BB2C385F3B1002033E0826A4C
:1024AC00036943B903685B68C3F308031380836A49
:1024BC0002338362ECE703685B68DBB21380836AE8
:1024CC0001338362E4E703685B68826A511C8162B2
:1024DC0003F07F031370DBE70268D36823F020035B
:1024EC00D3600268D36823F48073D36002685369A5
:1024FC0023F001035361202380F83A30FFF7B5FF36
:10250C00002000E0022008BD7047000010B5044612
:10251C0002681368D168526913F00F0005D113F0EB
:10252C00200F02D011F0200F53D1002867D012F0E9
:10253C00010202D111F4907F61D013F0010F06D08B
:10254C0011F4807F03D0E06B40F00100E06313F0E6
:10255C00040F04D01AB1E06B40F00200E06313F0FA
:10256C00020F04D01AB1E06B40F00400E06313F0EA
:10257C00080F04D01AB1E26B42F00802E263E26B7E
:10258C00002A48D013F0200F02D011F0200F24D1D4
:10259C0023685B6903F04003E26B12F0080F00D173
:1025AC003BB32046FFF70BFE23685A6912F0400F2D
:1025BC001BD05A6922F040025A61636B8BB11A4AE4
:1025CC005A63606B00F07CFD28B3606B436B9847DB
:1025DC0021E02046FFF74AFF1DE02046FFF746FFAB
:1025EC00D6E72046FFF790FF15E02046FFF78CFF5B
:1025FC0011E02046FFF788FF0023E3630BE013F0A4
:10260C00800F02D011F0800F06D113F0400F02D0D2
:10261C0011F0400F04D110BD2046FFF7DEFDFAE7A4
:10262C002046FFF715FFF6E73926000808B5406A83
:10263C000023C385C384FFF767FF08BD10B50446AC
:10264C000E4B18784FF47A73B3FBF0F30C4A106806
:10265C00B0FBF3F000F074FE68B90F2C01D9012027
:10266C000AE0002221464FF0FF3000F029FE054B16
:10267C001C60002000E0012010BD00BF0000002005
:10268C00080000200400002008B5074A136843F036
:10269C0010031360032000F001FE0020FFF7CEFFB3
:1026AC00FEF72AF8002008BD00200240034A1168FA
:1026BC00034B1B780B441360704700BF600700206E
:1026CC0000000020014B1868704700BF6007002015
:1026DC0038B50446FFF7F6FF0546B4F1FF3F02D0CC
:1026EC00044B1B781C44FFF7EDFF401BA042FAD3B0
:1026FC0038BD00BF0000002082B0084B1B68084AA0
:10270C00A2FB03235B0A00FB03F0019000BF019BBB
:10271C005A1E0192002BF9D102B07047080000201C
:10272C00D34D621070B582B00446036813F0010FEC
:10273C002CD0AB4B5B6803F00C03042B1DD0A84BC7
:10274C005B6803F00C03082B12D06368B3F5803F71
:10275C0041D0002B55D103F1804303F504331A68A3
:10276C0022F480321A601A6822F480221A6037E050
:10277C009B4B5B6813F4803FE7D0994B1B6813F4B9
:10278C00003F03D06368002B00F0AE81236813F088
:10279C00020F76D0924B5B6813F00C0F5FD0904B0E
:1027AC005B6803F00C03082B54D02369002B00F05A
:1027BC008A808C4B01221A60FFF784FF0546884BF8
:1027CC001B6813F0020F75D1FFF77CFF401B02282A
:1027DC00F5D903208BE1824A136843F480331360EC
:1027EC00636843B3FFF76EFF05467D4B1B6813F41C
:1027FC00003FCBD1FFF766FF401B6428F5D90320BF
:10280C0075E1B3F5A02F09D0754B1A6822F480320C
:10281C001A601A6822F480221A60E1E703F18043FF
:10282C00A3F53C331A6842F480221A601A6842F409
:10283C0080321A60D4E7FFF745FF0546684B1B68EA
:10284C0013F4003FA2D0FFF73DFF401B6428F5D9DD
:10285C0003204CE1624B5B6813F4803FA5D1604BC5
:10286C001B6813F0020F04D02369012B01D0012047
:10287C003DE15B4A136823F0F803616943EAC10345
:10288C001360236813F0080F32D0A369002B5BD0C0
:10289C00554B01221A60FFF715FF0546504B5B6A3A
:1028AC0013F0020F21D1FFF70DFF401B0228F5D9C1
:1028BC0003201CE14A4A136823F0F803616943EAD8
:1028CC00C1031360DDE7474B00221A60FFF7FAFEE5
:1028DC000546434B1B6813F0020FD2D0FFF7F2FEF4
:1028EC00401B0228F5D9032001E10120FFF704FF6A
:1028FC00236813F0040F00F09780394BDB6913F059
:10290C00805F33D1364BDA6942F08052DA61DB6991
:10291C0003F080530193019B0125344B1B6813F486
:10292C00807F25D0E368012B36D0002B4CD103F1EE
:10293C00804303F504331A6A22F001021A621A6A00
:10294C0022F004021A622CE0274B00221A60FFF7D7
:10295C00B9FE0546224B5B6A13F0020FC8D0FFF795
:10296C00B1FE401B0228F5D90320C0E00025D4E7B6
:10297C001E4A136843F480731360FFF7A3FE0646E8
:10298C001A4B1B6813F4807FCCD1FFF79BFE801B86
:10299C006428F5D90320AAE0114A136A43F0010315
:1029AC001362E36873B3FFF78DFE06460C4B1B6A8C
:1029BC0013F0020F37D1FFF785FE801B41F28833ED
:1029CC009842F3D9032092E0052B11D0044B1A6ADC
:1029DC0022F001021A621A6A22F004021A62E0E77B
:1029EC00001002400000424280044242007000404D
:1029FC00414B1A6A42F004021A621A6A42F001024E
:102A0C001A62CEE7FFF75EFE06463B4B1B6A13F0DD
:102A1C00020F08D0FFF756FE801B41F28833984214
:102A2C00F3D9032063E0E5B9E369002B5ED0324AA9
:102A3C00526802F00C02082A5BD0022B17D02F4BE5
:102A4C0000221A60FFF73EFE04462B4B1B6813F066
:102A5C00007F47D0FFF736FE001B0228F5D9032074
:102A6C0045E0254AD36923F08053D361DCE7234B3F
:102A7C0000221A60FFF726FE05461F4B1B6813F059
:102A8C00007F06D0FFF71EFE401B0228F5D903205D
:102A9C002DE0236AB3F5803F1AD017494B6823F415
:102AAC007413226A606A024313434B60134B012276
:102ABC001A60FFF707FE04460F4B1B6813F0007FEC
:102ACC000ED1FFF7FFFD001B0228F5D903200EE005
:102ADC00094A536823F40033A1680B435360DCE7C5
:102AEC00002004E0002002E0012000E0002002B001
:102AFC0070BD0120FBE700BF0010024060004242A5
:102B0C0010B487B0164C94E80F000DF1180C0CE9BA
:102B1C000F00238AADF80430124B5B6803F00C02F3
:102B2C00082A1AD1C3F38342624412F8102C13F40E
:102B3C00803F05D10C4800FB02F007B010BC704779
:102B4C00084B5B68C3F34043634413F8143C0748D9
:102B5C0000FB02F0B0FBF3F0EFE70448EDE700BF39
:102B6C00705A00080010024000093D0000127A0063
:102B7C00624B1B6803F007038B420CD25F4A13684D
:102B8C0023F007030B431360136803F007038B4216
:102B9C0001D00120704770B5036813F0020F17D0F5
:102BAC0013F0040F04D0564A536843F4E0635360A7
:102BBC00036813F0080F04D0514A536843F4605370
:102BCC0053604F4A536823F0F003846823435360E7
:102BDC000D460446036813F0010F52D04368012BD5
:102BEC0023D0022B28D0464A126812F0020F00F0B4
:102BFC00828043494A6822F0030213434B60FFF77B
:102C0C0061FD06466368012B1DD0022B2AD03C4B7C
:102C1C005B6813F00C0F34D0FFF754FD801B41F2AE
:102C2C0088339842F3D9032064E0354A126812F4D1
:102C3C00003FDED101205DE0314A126812F0007FC6
:102C4C00D7D1012056E02E4B5B6803F00C03042B0C
:102C5C0017D0FFF737FD801B41F288339842F2D929
:102C6C00032047E0264B5B6803F00C03082B08D0CD
:102C7C00FFF728FD801B41F288339842F2D90320DC
:102C8C0038E01E4B1B6803F00703AB420CD91B4A00
:102C9C00136823F007032B431360136803F0070337
:102CAC00AB4201D0012025E0236813F0040F06D0BD
:102CBC00134A536823F4E063E1680B4353602368C1
:102CCC0013F0080F07D00E4A536823F460532169A0
:102CDC0043EAC1035360FFF713FF094B5B68C3F36F
:102CEC000313084AD35CD840074B18600020FFF749
:102CFC00A5FC002070BD0120FCE700BF00200240B5
:102D0C0000100240905A000808000020014B18687F
:102D1C00704700BF0800002008B5FFF7F7FF044B11
:102D2C005B68C3F30223034AD35CD84008BD00BFE1
:102D3C0000100240A05A000808B5FFF7E7FF044B4B
:102D4C005B68C3F3C223034AD35CD84008BD00BF01
:102D5C0000100240A05A000870B582B00446036807
:102D6C0013F0010F34D03E4BDB6913F0805F48D178
:102D7C003B4BDA6942F08052DA61DB6903F0805335
:102D8C000193019B0125374B1B6813F4807F3AD0CC
:102D9C00334B1B6A13F4407311D0626802F4407217
:102DAC009A420CD02E4A136A23F440702E49012605
:102DBC000E6000260E60106213F0010F37D1284A06
:102DCC00136A23F4407361680B431362002D3FD1E7
:102DDC00236813F0020F06D0214A536823F44043B2
:102DEC00A1680B435360236813F0100F35D01C4AB5
:102DFC00536823F48003E1680B435360002002B056
:102E0C0070BD0025BFE7174A136843F48073136045
:102E1C00FFF758FC0646134B1B6813F4807FB7D1A1
:102E2C00FFF750FC801B6428F5D90320E7E7FFF778
:102E3C0049FC06460A4B1B6A13F0020FBFD1FFF781
:102E4C0041FC801B41F288339842F3D90320D6E72A
:102E5C00D36923F08053D361BAE70020CFE700BFDA
:102E6C00001002400070004040044242F0B482B0B6
:102E7C0000263546A1E0002C59D0012C00D1CE689B
:102E8C00FF2B68D88446FF2B68D8AC00DCF80020F8
:102E9C000F27A74022EA070206FA04F42243CCF8D3
:102EAC0000204A6812F0805F00F086805E4A9469C8
:102EBC0044F001049461926902F001020192019ABA
:102ECC00AC08A71C594A52F8272005F00307BF008D
:102EDC004FF00F0C0CFA07FC22EA0C0C544A9042EF
:102EEC0042D002F5806290427FD002F5806290421F
:102EFC007DD002F58062904234D0042235E04D4FF3
:102F0C00BC4214D00BD94C4FBC4210D007F58037C3
:102F1C00BC420CD0A7F58017BC42B1D107E0A7F595
:102F2C008017BC4203D007F58037BC42A8D18C680F
:102F3C007CB1012C08D042610826A1E7CE68083686
:102F4C009EE7CE680C369BE70261082698E70026C0
:102F5C0096E7042694E700F1040C94E7A5F1080425
:102F6C00A40093E7032200E00022BA4042EA0C02DC
:102F7C0002342E4F47F824204A6812F4803F38D090
:102F8C002E4C22681A4322604A6812F4003F36D055
:102F9C002A4C62681A4362604A6812F4801F34D06B
:102FAC00264CA2681A43A2604A6812F4001F32D061
:102FBC00224CE2681343E36001350F2D31D8012216
:102FCC00AA400B6813409A42F6D14C68122CB8D028
:102FDC0095D8022CB2D07FF64EAF032CB7D0112C63
:102FEC007FF44EAFCE6804364AE70122BDE70222D9
:102FFC00BBE7124C226822EA03022260C4E70F4CA2
:10300C00626822EA03026260C6E70C4CA26822EAFC
:10301C000302A260C8E7094CE26822EA0303E360FA
:10302C00CAE702B0F0BC704700100240000001403B
:10303C000008014000002110000031100004014084
:10304C0012B909040161704701617047C3685940A6
:10305C00C160704760B310B402460168154B0B4455
:10306C001548A0FB03031B099B001364134BD3638C
:10307C00022382F82130086820F47F5020F03000C1
:10308C00536894682343D4682343146923435469D5
:10309C00234394692343D469234303430B600020E7
:1030AC009063012382F8213082F8200010BC704715
:1030BC0001207047F8FFFDBFCDCCCCCC0000024006
:1030CC0008B590F82130022B03D004238363012030
:1030DC0008BD0268136823F00E03136002681368BE
:1030EC0023F0010313600368194A934214D014327D
:1030FC0093421FD0143293421ED0143293421ED0EE
:10310C00143293421ED01432934202D04FF080728C
:10311C0003E04FF4801200E001220E4B5A600123B1
:10312C0080F82130002380F82030436B6BB1984736
:10313C000020CDE71022F0E74FF48072EDE74FF45A
:10314C008052EAE74FF48032E7E70020C0E700BF87
:10315C00080002400000024038B5C36B1A680468CE
:10316C002568016C04238B40134235D015F0040FF5
:10317C0032D0236813F0200F03D1236823F004030B
:10318C0023600368434A934214D01432934218D0FC
:10319C001432934217D01432934217D01432934204
:1031AC0017D01432934202D04FF0806203E04FF4F8
:1031BC00800200E00422384B5A60C36A03B198477E
:1031CC0038BD4022F7E74FF48062F4E74FF48042B9
:1031DC00F1E74FF48022EEE702238B4013423CD000
:1031EC0015F0020F39D0236813F0200F06D1236895
:1031FC0023F00A032360012380F821300368254A59
:10320C00934214D0143293421CD0143293421BD0EC
:10321C00143293421BD0143293421BD0143293427B
:10322C0002D04FF0007203E04FF4001200E00222D3
:10323C00194B5A60002380F82030836A002BBFD0D2
:10324C009847BDE72022F3E74FF40072F0E74FF404
:10325C000052EDE74FF40032EAE7082303FA01F1DC
:10326C001142ADD015F0080FAAD0236823F00E033D
:10327C002360026CC16B012303FA02F24A60836380
:10328C0080F82130002380F82030036B002B97D07E
:10329C00984795E70800024000000240074AD368AF
:1032AC0023F4E0631B041B0C000200F4E0601843E1
:1032BC0040F0BF6040F40030D060704700ED00E09B
:1032CC0030B4174BDB68C3F30223C3F10704042C9F
:1032DC0028BF04241D1D062D18D9033B4FF0FF35C4
:1032EC0005FA04F421EA0401994005FA03F322EAF1
:1032FC000303194300280BDB0901C9B200F160403C
:10330C0000F5614080F8001330BC70470023E5E7FE
:10331C0000F00F000901C9B2024B1954F4E700BFC9
:10332C0000ED00E014ED00E000F01F024009012365
:10333C009340024A42F82030704700BF00E100E0A1
:10334C000138B0F1807F0AD2064B5860064AF02152
:10335C0082F823100020986007221A607047012021
:10336C00704700BF10E000E000ED00E0044B0022CD
:10337C00DA61044A136943F0010313610180704759
:10338C0068070020002002401A4BDB6813F0100F76
:10339C0027D0194AD36943F00203D3611023154A8D
:1033AC00D26812F0040F06D01349CA6942F0010228
:1033BC00CA6143F004030F4AD26912F0010F09D01D
:1033CC000D49CA6942F00402CA610A49CA6922F06D
:1033DC000102CA6140F20112934204D0054AD36043
:1033EC0070470023DBE7034AD36923F00103D36161
:1033FC00704700BF002002406807002070477047EC
:10340C00F8B5524BDB6813F0100F04D14F4BDB684F
:10341C0013F0040F0BD04E4CA5684FF0FF33A36094
:10342C00FFF7B2FF2846FFF7EAFF00232370474B54
:10343C00DB6813F0200F2BD0444B2022DA60444B76
:10344C001B782BB3424B1B78DBB2012B30D0404B9B
:10345C001B78DBB2022B4AD03D4B5A68013A5A60BA
:10346C005B68002B4FD13A4B1B78DBB2032B62D03D
:10347C00374B1B78DBB2042B62D0354B986806387F
:10348C00FFF7BCFF324B4FF0FF329A6000221A70EC
:10349C002F4B1B785BB92D4B1A6922F007021A616E
:1034AC001A6922F4A0521A61294B00221A76F8BD2F
:1034BC00274B5A68013A5A605B687BB1244CA06870
:1034CC00FFF79CFFA06800F58060A0601F4A13699D
:1034DC0023F00203136100F057F8D9E71C4B4FF0AF
:1034EC00FF30986000221A70FFF788FFD0E7174A68
:1034FC00136923F0040313610020FFF77FFF144BC3
:10350C0000221A70C4E7124B9A6802329A609868CB
:10351C00D3E90467340C44EA07443D0CC3E9044581
:10352C000A490A6922F001020A61D3E9042391B223
:10353C00FFF71CFFACE7064B9868FFF75FFFA1E7AE
:10354C00034B98680238FFF759FF9BE700200240B5
:10355C00680700200A4B1B6913F0800F0DD0084B35
:10356C00084A5A6002F188325A601B6913F0800FC6
:10357C0001D001207047002070470020704700BF29
:10358C000020024023016745064B0022DA61064BFE
:10359C001A6942F002021A6158611A6942F040023B
:1035AC001A61704768070020002002400F4B1A6810
:1035BC0042F001021A6059680D4A0A405A601A68B2
:1035CC0022F0847222F480321A601A6822F480226B
:1035DC001A605A6822F4FE025A604FF41F029A6075
:1035EC00044B4FF000629A60704700BF001002401D
:1035FC000000FFF800ED00E000B587B006AA02F865
:10360C00010D4FF0FF33029301230193009200222E
:10361C0078210348FDF7F2FB07B05DF804FB00BF0F
:10362C00A805002000B585B04FF0FF33029389B296
:10363C00019100900123402278210348FDF7DEFB25
:10364C0005B05DF804FB00BFA8050020002303E0D3
:10365C00FF21054AD1540133B3F5806F03D2002802
:10366C00F6D10021F5E770474C01002010B500247D
:10367C0012E0A4F15000C0B2FFF7BEFF0020FFF72C
:10368C00BBFF1020FFF7B8FF8021054800EBC410EA
:10369C00FFF7C8FF0134E4B2072CEAD910BD00BF14
:1036AC004C01002008B56420FFF712F8AE20FFF79C
:1036BC00A3FF2020FFF7A0FF1020FFF79DFFB020F5
:1036CC00FFF79AFFC820FFF797FF0020FFF794FF42
:1036DC001020FFF791FF4020FFF78EFF8120FFF7AE
:1036EC008BFFFF20FFF788FFA120FFF785FFA620A7
:1036FC00FFF782FFA820FFF77FFF3F20FFF77CFF3B
:10370C00A420FFF779FFD320FFF776FF0020FFF707
:10371C0073FFD520FFF770FFF020FFF76DFFD92066
:10372C00FFF76AFF2220FFF767FFDA20FFF764FF3D
:10373C001220FFF761FFDB20FFF75EFF2020FFF771
:10374C005BFF8D20FFF758FF1420FFF755FFAF20CC
:10375C00FFF752FF0020FFF779FFFFF787FF034BBE
:10376C0000221A805A8001225A7108BD440100209F
:10377C0010F0800F15D13F2913D8104B1B7913B1C2
:10378C00B2FA82F25209012A0CD0CB0800EBC3101A
:10379C0001F0070101238B40094A115C21EA030166
:1037AC0011547047CB0800EBC31001F00701012343
:1037BC008B40034A115C194311547047440100209B
:1037CC004C0100202DE9F04F83B002AC04E9060057
:1037DC00244A12889DF8006032447F2A3CDC214A3E
:1037EC0052889DF801A0D34652443F2A38DC9846B3
:1037FC00814600251FE01B4B18885988294420441A
:10380C00B8FA88F25209C9B2C0B2FFF7B1FF01345D
:10381C00A6420FD907FA04F313F4004FEBD0114B67
:10382C0018885988294420444246C9B2C0B2FFF7CF
:10383C009FFFECE70135AA4508D9A9F1200303FB4A
:10384C000B53019A32F813700024E1E7054B1A88E8
:10385C0016441E80484600E0002003B0BDE8F08FFF
:10386C000020FAE74401002070B582B0054602A89A
:10387C0000E906001E462C785CB1334602AA12E918
:10388C0006002046FFF79EFF2C78A04201D101359F
:10389C00F1E7204602B070BD014B1880598070478B
:1038AC00440100200268264B9A4200D0704710B5A4
:1038BC0082B0044603F564439A6942F400629A614B
:1038CC009B6903F400630193019B1E481E4B03602C
:1038DC000023436083608022C2604FF480720261D7
:1038EC004FF4806242618361C361FFF7B3FB20BB7D
:1038FC00144B63625C62002211461820FFF7E0FC57
:10390C001820FFF711FD002211461920FFF7D8FCF3
:10391C001920FFF709FD002211461A20FFF7D0FCF1
:10392C001A20FFF701FD002211461B20FFF7C8FCEF
:10393C001B20FFF7F9FC02B010BDFCF783FCD7E7A6
:10394C00002C0140880700201C00024000B587B005
:10395C000023029303930493059302680D4B9A4240
:10396C0002D007B05DF804FB03F564439A6942F09A
:10397C0004029A619B6903F004030193019B4FF4C9
:10398C008073029302230393059302A90248FFF765
:10399C006DFAE6E7002C01400008014000B595B037
:1039AC00002310931193129313930E930F93079379
:1039BC00089309930A930B930C930D930093019323
:1039CC00029303930493059306932C482C4A0260AC
:1039DC0043608360C360036143618361FEF7C6FA91
:1039EC00002839D114A94FF4805341F8103D2348D5
:1039FC00FEF73BF9002832D12048FEF7D0FA002818
:103A0C0030D100230E930F930EA91C48FEF7ACFB8C
:103A1C0058BB602307930022089209920A920B92DA
:103A2C000C920D9207A91548FEF704FB00BB00236E
:103A3C00009301930293039304934FF40052059265
:103A4C00069369460D48FEF763FBA0B90B48FFF7D8
:103A5C007DFF15B05DF804FBFCF7F4FBC2E7FCF747
:103A6C00F1FBC9E7FCF7EEFBCBE7FCF7EBFBD0E790
:103A7C00FCF7E8FBDBE7FCF7E5FBE7E7CC0700200E
:103A8C00002C014008B500220B490C4801F0C5FA86
:103A9C0048B90B49094801F0D7FA38B9074801F081
:103AAC00DAFA30B908BDFCF7CDFBF2E7FCF7CAFB3C
:103ABC00F4E7FCF7C7FBF5E7140000200C08002026
:103ACC00B000002018B1022803D00220704700205B
:103ADC00704701207047000002680E4B9A4200D0DC
:103AEC00704700B583B003F5DA33DA6942F40002AB
:103AFC00DA61DB6903F400030193019B0022114698
:103B0C001420FFF7DDFB1420FFF70EFC03B05DF86B
:103B1C0004FB00BF005C004008B500F22C41D0F85B
:103B2C005C0401F0B1FA08BD08B500EB4113D3F801
:103B3C003C22D0F85C0401F0D4FA08BD08B500EBC7
:103B4C004113DA6BD0F85C0401F000FB08BD08B53A
:103B5C00D0F85C0401F083FB08BD10B50446836803
:103B6C00022B01D0FCF76EFB0121D4F85C0401F0B0
:103B7C0064FBD4F85C0401F041FB10BD10B50446A5
:103B8C00D0F85C0401F05CFBA36923B1024A136911
:103B9C0043F00603136110BD00ED00E008B5D0F84A
:103BAC005C0401F056FB08BD10B504461648C0F87D
:103BBC005C44C4F82002154B0360082343600223C5
:103BCC00836000238361C361036200F00DF9B8B90F
:103BDC00182300221146D4F8200200F04FFD582380
:103BEC0000228021D4F8200200F048FD4FF48073AD
:103BFC0000228121D4F8200200F040FD002010BDED
:103C0C00FCF720FBE4E700BF300A0020005C00401A
:103C1C0008B5D0F8200200F052F9FFF753FF08BDA9
:103C2C0010B51C4613462246D0F8200200F072F95B
:103C3C00FFF748FF10BD08B5D0F8200200F093F94B
:103C4C00FFF740FF08BD08B5D0F8200200F0C1FC1A
:103C5C00FFF738FF08BD08B5D0F8200200F0E7FCEC
:103C6C00FFF730FF08BDD0F8203211F0800F06D1DD
:103C7C0001F07F0103EB411191F82A02704701F02A
:103C8C007F0103EB411191F82A00704708B5D0F879
:103C9C00200200F02BF9FFF715FF08BD08B5D0F88E
:103CAC00200200F0A6F9FFF70DFF08BD08B5D0F80B
:103CBC00200200F07FF9FFF705FF08BD00487047B0
:103CCC004C0500207047704712230B80004870474A
:103CDC003000002004230B80004870474400002073
:103CEC000023934216D230B40BE0373401F8134062
:103CFC0000015C00013400250D550133DBB2934209
:103D0C0006D2040F092CF0D8303401F81340EFE739
:103D1C0030BC70477047000038B50A4B1868043344
:103D2C001C6804331B68C01800D138BD064D08222E
:103D3C00A91CFFF7D5FF042205F112012046FFF75D
:103D4C00CFFFF2E7E8F7FF1F4800002008B51A2361
:103D5C000B80FFF7E1FF014808BD00BF48000020C1
:103D6C0008B50A4628B10549054801F0E6FC0348A8
:103D7C0008BD0249024801F0E0FCF8E7900E002073
:103D8C004462000810B5044C0A462146034801F071
:103D9C00D4FC204610BD00BF900E002030620008FD
:103DAC0008B50A4628B10549054801F0C6FC034888
:103DBC0008BD0249024801F0C0FCF8E7900E002053
:103DCC001462000808B50A4628B10549054801F0F7
:103DDC00B4FC034808BD0249024801F0AEFCF8E708
:103DEC00900E002020620008002866D0F0B587B045
:103DFC00044690F82934C3B1032384F8293420688D
:103E0C0000F063FC254655F8107B6E460FCD0FC6AF
:103E1C002B683360231D0ECB384600F047FC002185
:103E2C00206800F05CFC002315E080F82834FFF7D4
:103E3C0053FEE1E704EB4312012182F8291082F8CA
:103E4C0028309386002182F82B109163D1639A1C41
:103E5C005201A15001330E2BECD9002312E004EBDC
:103E6C004312002182F8291282F82832938682F8B4
:103E7C002B12C2F83812C2F83C1203F11202520192
:103E8C00A15001330E2BEAD9254655F8107B6E460E
:103E9C000FCD0FC62B683360231D0ECB384600F0B8
:103EAC0020FC002584F82450012384F82934206850
:103EBC0000F02BFF284607B0F0BD0120704790F8AA
:103ECC002834012B10D010B50446012180F8281499
:103EDC00FFF7F9FE206800F016FF206800F0EDFBFC
:103EEC00002084F8280410BD0220704790F8283474
:103EFC00012B0DD010B50446012380F8283480F82E
:103F0C002410006800F0F9FE002084F8280410BD8D
:103F1C000220704738B54DB2002D1CDB01F07F0438
:103F2C00640104F50A74044401F07F012170ED0F63
:103F3C0065702261E37090F82834012B11D005468E
:103F4C00012380F828342146006800F0E0FB0020B3
:103F5C0085F8280438BD01F07F046401283404443A
:103F6C00E2E70220F6E74AB2002A1BDB01F07F03EE
:103F7C005B0103F50A73034401F07F011970D20F42
:103F8C005A7090F82824012A12D010B50446012248
:103F9C0080F828241946006800F04DFD002084F8B4
:103FAC00280410BD01F07F035B0128330344E3E7D1
:103FBC000220704770B501F07F056C0104F50A71A1
:103FCC0001440444C4F83C2205F112025201861843
:103FDC0083500023736084F8293284F8285225B169
:103FEC00006800F0AEFE002070BD006800F0A9FE75
:103FFC00F9E770B501F07F056C0104F1280101446B
:10400C000444E263AA1C5201861883500023736097
:10401C00012384F8293084F8285025B1006800F079
:10402C0090FE002070BD006800F08BFEF9E770B5C3
:10403C0082B004460023ADF80630ADF80430206899
:10404C00B0F844309BB2ADF8063013F4004F00F0DA
:10405C000D82BDF8065015F00F0540F0C280BDF87A
:10406C00063013F0100F50D003889BB2ADF804301B
:10407C00BDF8043013F4006F79D1BDF8043013F49B
:10408C00004FDCD0038823F070031B051B0D03804D
:10409C002068B0F8503094F8282203EBC2030633A2
:1040AC0000EB4303D3F80034C3F30903C4F84432E0
:1040BC00002B7CD100212046FFF736FD2368B3F896
:1040CC005020063203EB4203D4F838123E297CD937
:1040DC00C1F34F1211F01F0F01D1013A92B26FEAE6
:1040EC00C2626FEA524292B2C3F80024226813886B
:1040FC009BB223F4804323F0700383F4405343F4C6
:10410C00004343F08003138099E703889BB223F4A8
:10411C00E14323F070039BB203802268B2F8503065
:10412C0094F8281003EBC103023302EB4303D3F8DA
:10413C000034C3F309036364E26B1344E3630021AB
:10414C002046FFF7FBFC94F82430002B3FF477AFAC
:10415C00236C002B7FF473AF94F82430226843F067
:10416C008003A2F84C30002384F8243067E7B0F8C1
:10417C00503094F8282203EBC203063300EB4303C0
:10418C00D3F80034C3F30903C4F84432B4F82C2236
:10419C0004F22C4100F032FF2268138823F07003E4
:1041AC001B051B0D13802046FFF7B6FC47E7B4F840
:1041BC002C22D4F83C1200F021FFD4F84422D4F87D
:1041CC003C321344C4F83C3274E7C1F34F0211F093
:1041DC00010F01D0013292B2920292B2C3F80024C4
:1041EC0084E730F825309BB2ADF80430BDF80430CC
:1041FC0013F4004F35D1BDF8043013F0800F3FF4A9
:10420C001EAF226832F825309BB223F4E14323F031
:10421C0070039BB222F8253004EB451393F832302F
:10422C00002B40F0B2802068B0F8503004EB4512FF
:10423C0092F8282003EBC203023300EB4303D3F8BC
:10424C000034C3F30903AA1C04EB42125360002B85
:10425C0000F0C68004EB45118A8DC96B00F05CFD43
:10426C00BEE030F8253023F070031B051B0D20F841
:10427C00253004EB451393F83232D3B92068B0F8EB
:10428C00503004EB451292F8282203EBC20306339C
:10429C0000EB4303B3F80064C6F3090686B304EBE2
:1042AC0045113346B1F82C22D1F83C1200F0A6FE91
:1042BC0026E0206804EB451393F8282230F82230CE
:1042CC0013F4804F42D0B0F8503003EBC2030233EA
:1042DC0000EB4303B3F80064C6F3090666BB22681F
:1042EC0004EB451393F8281232F8213023F0F00335
:1042FC001B051B0D43F4004343F0C00322F821308F
:10430C0005F112035B01E1184A6832444A6004EB80
:10431C004511D1F83C223244C1F83C22E3581BB180
:10432C00D1F838128E4228D204EB451393F8281298
:10433C002046FFF7F9FB5EE704EB45113346B1F875
:10434C002E22D1F83C1200F059FEC8E7B0F85030DC
:10435C0003EBC203063300EB4303B3F80064C6F36C
:10436C000906002EBBD004EB45113346B1F83022C0
:10437C00D1F83C1200F042FEB1E704EB451191F884
:10438C0028122046FFF716FE35E7206804EB45138C
:10439C0093F8282030F8223013F0400F46D0B0F8B4
:1043AC00503003EBC203023300EB4303D3F8003469
:1043BC00C3F30903AA1C04EB421253607BBB2268B3
:1043CC0004EB451393F8281032F8213023F0F00356
:1043DC001B051B0D43F4404343F0800322F82130AE
:1043EC002268B2F8503004EB451090F8281003EB1B
:1043FC00C103023302EB4303D3F80024C2F30902D6
:10440C00AB1C5B01E1184A60C16B0A44C263E35800
:10441C0023BB90F828102046FFF790FB0FE604EB27
:10442C004511CA8DC96B00F077FCC8E7B0F8503065
:10443C0003EBC203063300EB4303D3F80034C3F39E
:10444C000903AA1C04EB42125360002BB7D004EBF7
:10445C0045110A8EC96B00F05FFCB0E704EB451503
:10446C0095F828102046FFF7C4FDE8E5002002B0BF
:10447C0070BD10B50446006800F049FC10F4004F04
:10448C0045D1206800F043FC10F4806F43D12068C4
:10449C0000F03DFC10F4804F08D02268B2F8443094
:1044AC009BB223F480439BB2A2F84430206800F006
:1044BC002EFC10F4005F08D02268B2F844309BB296
:1044CC0023F400539BB2A2F84430206800F01FFC88
:1044DC0010F4805F30D1206800F019FC10F4006FEC
:1044EC0049D1206800F013FC10F4007F64D12068DF
:1044FC0000F00DFC10F4807F08D02268B2F8443034
:10450C009BB223F480739BB2A2F8443010BD2046BA
:10451C00FFF78DFDB5E72268B2F844309BB223F467
:10452C0080639BB2A2F844302046FFF716FB0021B3
:10453C002046FFF7DBFCAAE72268B2F840309BB2BA
:10454C0023F004039BB2A2F840302268B2F840304A
:10455C009BB223F008039BB2A2F840302046FFF731
:10456C001DFB2268B2F844309BB223F480539BB2FB
:10457C00A2F84430AFE72268B2F8403043F00803A9
:10458C00A2F840302268B2F844309BB223F40063A6
:10459C009BB2A2F844302268B2F8403043F00403D6
:1045AC00A2F84030206800F0B2FB10F4805F98D184
:1045BC002046FFF7E3FA94E72268B2F844309BB246
:1045CC0023F400739BB2A2F844302046FFF7BFFAE5
:1045DC008DE738B54AB2002A1BDB4B0103F50A7391
:1045EC00034401249C7001F07F051D70D20F5A709A
:1045FC0090F82824A24218D00446012280F82824DE
:10460C001946006800F0F9FA4DB1002084F828042E
:10461C0038BD01F07F035B0128330344E1E704F26A
:10462C002C41206800F076FBEFE70220F0E710B594
:10463C004AB2002A1ADB4B0103F50A730344002427
:10464C009C7001F07F011970D20F5A7090F82824D9
:10465C00012A11D00446012280F82824194600684A
:10466C0000F002FB002084F8280410BD01F07F0349
:10467C005B0128330344E2E70220F6E711F0800FD8
:10468C000CD001F07F014901283101445AB10122BB
:10469C008A72CB801B0C0B8100207047490101F5FD
:1046AC000A710144F2E78A728B80F5E784B001A8A5
:1046BC0080E80E00002004B07047B0F8403043F49E
:1046CC003F43A0F8403000207047B0F8403023F44E
:1046DC0074535B045B0CA0F8403000207047002042
:1046EC00704784B038B505AC84E80E000123A0F8FF
:1046FC0040300024A0F84040A0F84440A0F85040BE
:10470C00FFF7DBFF2046BDE8384004B0704710B41B
:10471C00CB78032B0FD8DFE803F0026D54600A78D6
:10472C0030F822309BB223F4EC4323F0700343F4B3
:10473C00007320F822300A7830F8223023F0F0038E
:10474C001B051B0D134343F4004343F0800320F877
:10475C0022308B7A002B40F0AF804B78002B56D058
:10476C008A885208B0F850300C7803EBC40300EB85
:10477C0043035200C3F800240A7830F8223013F0B7
:10478C00400F0BD030F8223023F0F0031B051B0D2B
:10479C0043F4004343F0C00320F822300A7830F889
:1047AC0022309BB223F4E04323F0400383F0200338
:1047BC0043F4004343F0800320F82230002010BC67
:1047CC0070470A7830F822309BB223F4EC4323F084
:1047DC0070039BB220F82230ADE70A7830F8223013
:1047EC009BB223F4EC4323F0700343F4C06320F832
:1047FC002230A0E70A7830F822309BB223F4EC4345
:10480C0023F0700343F4806320F8223093E78A8806
:10481C005208B0F850300C7803EBC403043300EBAF
:10482C0043035200C3F80024B0F850300A7803EB6D
:10483C00C203063300EB43030C693E2C30D9C4F39E
:10484C004F1214F01F0F01D1013A92B26FEAC262FB
:10485C006FEA524292B2C3F800240A7830F8223040
:10486C0013F4804F0BD030F8223023F0F0031B05EB
:10487C001B0D43F4404343F0800320F822300A78A8
:10488C0030F822309BB223F4804323F0700383F47E
:10489C00405343F4004343F0800320F822308DE76B
:1048AC00C4F34F0214F0010F01D0013292B2920204
:1048BC0092B2C3F80024D0E70A7830F8223023F4FF
:1048CC00F8731B051B0D43F4014343F0800320F8E0
:1048DC002230CA885208B0F850300C7803EBC4036D
:1048EC0000EB43035200C3F800240A895208B0F8C5
:1048FC0050300C7803EBC403043300EB4303520039
:10490C00C3F800244B78002B4BD10A7830F82230B6
:10491C0013F4804F0BD030F8223023F0F0031B053A
:10492C001B0D43F4404343F0800320F822300A78F7
:10493C0030F8223013F0400F0BD030F8223023F037
:10494C00F0031B051B0D43F4004343F0C00320F898
:10495C0022300A7830F8223023F0F0031B051B0DAF
:10496C0043F4004343F0C00320F822300A7830F8B7
:10497C0022309BB223F4804323F0700383F4405322
:10498C0048F28004234320F822300A7830F8223091
:10499C009BB223F4E04323F04003234320F822305E
:1049AC000CE70A7830F8223013F4804F0BD030F833
:1049BC00223023F0F0031B051B0D43F4404343F05E
:1049CC00800320F822300A7830F8223013F0400FA0
:1049DC000BD030F8223023F0F0031B051B0D43F4F1
:1049EC00004343F0C00320F822300A7830F822301C
:1049FC0023F0F0031B051B0D43F4404343F08003ED
:104A0C0020F822300B7830F8232092B222F4E042C6
:104A1C0022F0400248F28004224320F823200A7836
:104A2C0030F822309BB223F4804323F070032343ED
:104A3C0020F82230C2E68B7A002B44D14B780BB392
:104A4C000A7830F8223013F0400F0BD030F82230B7
:104A5C0023F0F0031B051B0D43F4004343F0C0038C
:104A6C0020F822300A7830F822309BB223F4E0434D
:104A7C0023F0400343F4004343F0800320F822303A
:104A8C00002070470A7830F8223013F4804F0BD096
:104A9C0030F8223023F0F0031B051B0D43F4404388
:104AAC0043F0800320F822300A7830F822309BB291
:104ABC0023F4804323F0700343F4004343F080035A
:104ACC0020F82230DCE710B44B78002B4BD10A785D
:104ADC0030F8223013F4804F0BD030F8223023F012
:104AEC00F0031B051B0D43F4404343F0800320F8F7
:104AFC0022300A7830F8223013F0400F0BD030F807
:104B0C00223023F0F0031B051B0D43F4004343F04C
:104B1C00C00320F822300A7830F8223023F0F0035A
:104B2C001B051B0D43F4004343F0C00320F8223057
:104B3C000B7830F8232092B222F4804222F07002DB
:104B4C0048F28004224320F823200A7830F82230DF
:104B5C009BB223F4E04323F04003234320F822309C
:104B6C00002010BC70470A7830F8223013F4804FC4
:104B7C000BD030F8223023F0F0031B051B0D43F44F
:104B8C00404343F0800320F822300A7830F822307A
:104B9C0013F0400F0BD030F8223023F0F0031B053C
:104BAC001B0D43F4004343F0C00320F822300A7875
:104BBC0030F8223023F0F0031B051B0D43F4404367
:104BCC0043F0800320F822300B7830F8232092B287
:104BDC0022F4E04222F0400248F28004224320F802
:104BEC0023200A7830F822309BB223F4804323F040
:104BFC007003234320F82230B2E70A788AB14B784D
:104C0C0013BB30F822309BB223F4804323F07003A3
:104C1C0083F4805343F4004343F0800320F82230A4
:104C2C0010E030F822309BB223F4804323F0400391
:104C3C0083F4805383F0100343F4004343F0800368
:104C4C0020F822300020704730F822309BB223F439
:104C5C00E04323F0400383F0100343F4004343F09C
:104C6C00800320F82230EDE74B781BB30A7830F83C
:104C7C00223013F0400F0BD030F8223023F0F00329
:104C8C001B051B0D43F4004343F0C00320F82230F6
:104C9C000A7830F822309BB223F4E04323F040032F
:104CAC0083F0300343F4004343F0800320F82230B8
:104CBC00002070470A7830F8223013F4804F0BD064
:104CCC0030F8223023F0F0031B051B0D43F4404356
:104CDC0043F0800320F822300A7830F822309BB25F
:104CEC0023F4804323F0700383F4405343F40043D4
:104CFC0043F0800320F82230DAE711B98023A0F8C2
:104D0C004C30002070470020704700207047B0F8EE
:104D1C00440070470020704701335B1000EB4202E7
:104D2C0002F5806263B110B40C78487844EA002430
:104D3C0022F8044B0231013B002BF5D110BC70471B
:104D4C007047F8B58A694D78012D34D00B699342C0
:104D5C0080F0EA80D21A8A618A7A002A40F0F480C4
:104D6C00B0F850200C7802EBC402063200EB420281
:104D7C003E2B40F2DD80C3F34F1413F01F0F01D113
:104D8C00013CA4B26FEAC4646FEA5444A4B2C2F802
:104D9C0000440A7830F822309BB223F4804323F08D
:104DAC00700383F4405343F4004343F0800320F832
:104DBC0022300020F8BD0F69974225D2D21B8A61A0
:104DCC000E4604468B7A1BB30B7830F8232012F076
:104DDC00400F69D0002D37D1B0F8502002EBC3033F
:104DEC00063300EB43033E2F22D9C7F34F1217F0C3
:104DFC001F0F01D1013A92B26FEAC2626FEA5242BE
:104E0C0092B2C3F8002428E000238B611746D7E741
:104E1C00BBB28A884969FFF77FFFB4F8503032780B
:104E2C0003EBC203023304EB4303C3F800742AE020
:104E3C00C7F34F0217F0010F01D0013292B2920268
:104E4C0092B2C3F8002408E0B0F8502002EBC30380
:104E5C00023300EB4303C3F800743289BBB27169AF
:104E6C002046FFF759FF7378002B4DD1327834F878
:104E7C00223023F0F0031B051B0D43F4004343F0D9
:104E8C00C00324F82230327834F822309BB223F459
:104E9C00E04323F0400383F0300343F4004343F03A
:104EAC00800324F8223084E71DBBB0F8502002EBBD
:104EBC00C303023300EB43033E2F0ED9C7F34F124B
:104ECC0017F01F0F01D1013A92B26FEAC2626FEA7A
:104EDC00524292B2C3F8002414E0C7F34F0217F009
:104EEC00010F01D0013292B2920292B2C3F80024A7
:104EFC0008E0B0F8502002EBC303023300EB43038D
:104F0C00C3F80074F288A9E7012BBCD1327834F8CD
:104F1C00223023F0F0031B051B0D43F4404343F0F8
:104F2C00800324F82230AEE700238B61134613E78D
:104F3C00C3F34F0413F0010F01D00134A4B2A40247
:104F4C00A4B2C2F8004424E7BDB9B0F850200C78E4
:104F5C0002EBC402023200EB42023E2B28D9C3F30F
:104F6C004F1413F01F0F01D1013CA4B26FEAC464BB
:104F7C006FEA5444A4B2C2F800444A7882BBB0F839
:104F8C0050200C7802EBC402063200EB42023E2B9E
:104F9C001AD9C3F34F1413F01F0F01D1013CA4B263
:104FAC006FEAC4646FEA5444A4B2C2F80044F0E659
:104FBC00C3F34F0413F0010F01D00134A4B2A402C7
:104FCC00A4B2C2F80044D8E7C3F34F0413F0010FA6
:104FDC0001D00134A4B2A402A4B2C2F80044D8E6B1
:104FEC00012A7FF4D6AEB0F850200C7802EBC40244
:104FFC00023200EB4202C2F80034CAE601335B1005
:10500C0000EB420202F5806204E0106821F8020B0A
:10501C00013B0432002BF8D1704798B108B5034618
:10502C00D0F8140210B10020C3F8140209B1C3F86F
:10503C0010121846012380F8FC310270FEF7B4FD03
:10504C00002008BD0220704719B1C0F814120020CE
:10505C0070470220704708B5FEF7DAFD002008BD46
:10506C0008B5D0F8143233B11B68984708B9002042
:10507C0008BD0220FCE70220FAE708B5D0F814328C
:10508C005B689847002008BD38B5044600F50275EA
:10509C00284600F00CF90123C4F8F431B4F80E32B0
:1050AC00C4F8F83194F8081201F01F03012B0ED04C
:1050BC003BB1022B10D001F080012046FEF7C3FD5E
:1050CC0003E02946204600F06CFA002038BD294642
:1050DC00204600F08AFAF8E72946204600F0A1FAAB
:1050EC00F3E710B5044621BB1346D0F8F421032A8C
:1050FC0001D0002010BDD0F80C11D0F81021914235
:10510C000CD8D0F814321B6923B190F8FC21032A77
:10511C0000D19847204600F04AFBEAE7891AC0F80C
:10512C000C118A4228BF0A4692B2194600F037FB8E
:10513C00DFE70A46D0F814329B69002BD9D090F8DF
:10514C00FC110329D5D111469847D2E710B5044676
:10515C00002946D11346D0F8F421022A05D094F840
:10516C000032012B39D0002010BDC169026A914276
:10517C0019D88169B1FBF2F302FB13132BB98A42E4
:10518C0003D8D0F8F83199421AD3D4F81432DB682A
:10519C002BB194F8FC21032A01D1204698472046D4
:1051AC0000F010FBDBE78A1AC26192B2194600F0DC
:1051BC00EEFA00231A4619462046FEF777FDCEE795
:1051CC000022114600F0E3FA0021C4F8F8110B4656
:1051DC000A462046FEF76AFDC1E7002384F8003238
:1051EC00C1E70A46D0F814325B69002BBBD090F8AB
:1051FC00FC110329B7D111469847B4E738B50446DA
:10520C00402300221146FEF70BFD4025C4F8105137
:10521C002B46002280212046FEF702FD2562012349
:10522C0084F8FC31D4F818322BB1D4F814325B6802
:10523C00217920469847002038BD01740020704722
:10524C0090F8FC3180F8FD31042380F8FC3100200B
:10525C00704790F8FD3180F8FC310020704708B59C
:10526C0090F8FC31032B01D0002008BDD0F814328B
:10527C00DB69002BF8D09847F6E7002302E00133F6
:10528C00DBB201300278002AF9D1184670474B88FE
:10529C00012B0BD110B50446C0F80432D0F81432EF
:1052AC009B689847204600F082FA10BD70470B7837
:1052BC0003704B7843708B78CA7803EB02234380DE
:1052CC000B794A7903EB022383808B79CA7903EB40
:1052DC000223C380704710B504468021FEF7B3FC4F
:1052EC0000212046FEF7AFFC10BD30B583B004465C
:1052FC000D464A88130A013B062B00F28180DFE839
:10530C0003F00413277F7F637000D0F810321B6802
:10531C000DF10601007C9847BDF8062012B1EB8810
:10532C00002B71D103B030BD037C43B9D0F81432DB
:10533C009B6A0DF10600984702234370ECE7D0F806
:10534C001432DB6A0DF10600984702234370E3E741
:10535C00D2B2052A34D8DFE802F0030B131B232B3F
:10536C00D0F810325B680DF10601007C9847D3E74A
:10537C00D0F810329B680DF10601007C9847CBE702
:10538C00D0F81032DB680DF10601007C9847C3E7BA
:10539C00D0F810321B690DF10601007C9847BBE771
:1053AC00D0F810325B690DF10601007C9847B3E729
:1053BC00D0F810329B690DF10601007C9847ABE7E1
:1053CC002946FFF788FFADE7037C33B9D0F81432D8
:1053DC005B6B0DF1060098479EE72946FFF77BFFB4
:1053EC00A0E7037C43B9D0F814321B6B0DF1060017
:1053FC009847072343708FE72946FFF76CFF91E727
:10540C002946FFF768FF8DE79A4228BF1A46ADF888
:10541C0006200146204600F0ADF983E738B5044676
:10542C008B88E3B9CB88D3B98D7805F07F0590F8DC
:10543C00FC31032B0CD080F8FE512946FEF726FCDC
:10544C00204600F0B4F935B1022384F8FC3109E0B0
:10545C00FFF741FF06E0012384F8FC3102E020460F
:10546C00FFF739FF38BD000038B504460D46897882
:10547C00254B1970012909D890F8FC31022B09D061
:10548C00032B1CD02946FFF726FF02E02946FFF725
:10549C0022FF38BD81B14160032380F8FC31FFF756
:1054AC00DFFD022803D0204600F081F9F1E7294600
:1054BC002046FFF710FFECE700F079F9E9E789B136
:1054CC00436899421DD0D9B2FFF7D7FD0E4B19781E
:1054DC0061602046FFF7C4FD02280DD0204600F085
:1054EC0066F9D6E7022380F8FC314160FFF7C5FD71
:1054FC00204600F05CF9CCE729462046FFF7EBFE8E
:10550C00C7E700F054F9C4E76005002008B5CB8864
:10551C00012B08D190F8FC31022B07D0032B0DD0B6
:10552C00FFF7D9FE01E0FFF7D6FE08BD01460023C8
:10553C0041F8083F012200F01DF9F6E70122011D98
:10554C0000F018F9F1E708B590F8FC31023B012B9B
:10555C000CD80123C360D0F804320BB10323C36011
:10556C00022200F10C0100F005F908BDFFF7B3FEB3
:10557C00FBE710B5044690F8FC31023B012B0DD82B
:10558C004B88012B09D10023C0F80432D0F8143217
:10559C009B689847204600F00AF910BDFFF79BFE68
:1055AC00FBE708B54B78092B1CD8DFE803F0121881
:1055BC001B151B09051B0F0CFFF797FE002008BDE0
:1055CC00FFF72CFFFAE7FFF74FFFF7E7FFF79EFF18
:1055DC00F4E7FFF7B8FFF1E7FFF759FEEEE7FFF747
:1055EC00C8FFEBE7FFF777FEE8E738B504460D4652
:1055FC0090F8FC31032B11D10B79012B0BD8D0F87F
:10560C0014329B689847EB880BB1002038BD2046BC
:10561C0000F0CDF8F9E7FFF75EFEF6E7FFF75BFE6B
:10562C00F3E738B505460C468A880B7803F060031F
:10563C00202B05D1D0F814329B689847002038BD38
:10564C00D1B26378012B25D0002B47D0032BF5D199
:10565C0090F8FC31022B05D0032B0AD02146FFF722
:10566C003AFEEBE70029E9D08029E7D0FEF7EBFA08
:10567C00E4E7638823B919B1802901D0FEF7E3FA76
:10568C00D5F814329B68214628469847284600F0E6
:10569C008EF8D3E790F8FC31022B05D0032B0AD0FF
:1056AC002146FFF718FEC9E70029C7D08029C5D0CD
:1056BC00FEF7C9FAC2E76388002BBFD111F07F0F48
:1056CC0003D1284600F073F8B8E7FEF7C4FAD5F812
:1056DC0014329B68214628469847F2E790F8FC3133
:1056EC00022B05D0032B09D02146FFF7F4FDA5E7CB
:1056FC0011F07F0FA2D0FEF7A6FA9FE712F0800FF1
:10570C0011D101F07F04103400EB0414043428464A
:10571C00FEF7A9FA70B10123236002222146284624
:10572C0000F028F88AE701F07F04013400EB041440
:10573C000434ECE700232360EFE7D0B170B50D46DD
:10574C0016460446FFF799FD0130400080B23080C8
:10575C00287003236B70022307E001345A1CD2B269
:10576C00E9540233DBB20021A95421780029F4D189
:10577C0070BD704710B513460222C0F8F421836146
:10578C00C3610A460021FEF789FA002010BD08B556
:10579C0013460A460021FEF781FA002008BD08B521
:1057AC0013460A460021FEF781FA002008BD08B511
:1057BC000423C0F8F43100231A461946FEF76EFA9A
:1057CC00002008BD08B50523C0F8F43100231A46A3
:1057DC001946FEF76BFA002008BD00002223038057
:1057EC0000487047E8000020D0F8183200201873E9
:1057FC00704700000A2303800048704718010020FE
:10580C0010B5D0F818420B7813F0600325D0202B7C
:10581C004FD14B78023B092B1BD8DFE803F014095E
:10582C001A1A1A1A1A1A0F058B782360002041E0F5
:10583C0001222146FFF79EFF00203BE04B881B0A0C
:10584C006360002036E00122211DFFF793FF00204A
:10585C0030E0FFF740FD02202CE04B780A2B1DD0E6
:10586C000B2B22D0062B01D0002023E04B881B0AE7
:10587C00222B07D0212B0BD000210A46FFF77AFFF1
:10588C00002017E0CA884A2A28BF4A220A49F5E7AD
:10589C00CA88092A28BF09220849EFE7012204F126
:1058AC000801FFF767FF002004E08B78A36000205D
:1058BC0000E0002010BD00BF640000200C0100209F
:1058CC0010B504468121FEF7B6F9D4F8180220B1C0
:1058DC00FEF7F8F90023C4F81832002010BD10B5FB
:1058EC000446042303228121FEF79AF91020FEF7C7
:1058FC00E5F9C4F8180218B100230373184610BD5B
:10590C000120FCE700B583B0284B5A6942F0010234
:10591C005A615B6903F001030193019B2448254BF9
:10592C0003604FF480434360402383608023C36053
:10593C000023036143618361C361FDF78BFB90BB63
:10594C00002211460B20FDF7BBFC0B20FDF7ECFCF5
:10595C00002211460C20FDF7B3FC0C20FDF7E4FCF3
:10596C00002211460E20FDF7ABFC0E20FDF7DCFCEF
:10597C00002211460F20FDF7A3FC0F20FDF7D4FCED
:10598C00002211461020FDF79BFC1020FDF7CCFCEB
:10599C00002211461120FDF793FC1120FDF7C4FCE9
:1059AC0003B05DF804FBFAF74DFCC9E700100240A8
:1059BC009010002008000240002103E00B4B5B58C4
:1059CC00435004310A480B4B42189A42F6D30A4A08
:1059DC0002E0002342F8043B084B9A42F9D3FDF74E
:1059EC00E5FD00F00FF8FAF7DFFB70476462000882
:1059FC00000000202401002028010020D4100020E9
:105A0C00FEE7000070B500250C4E0D4CA41BA41035
:105A1C00A54209D100F01AF800250A4E0A4CA41B25
:105A2C00A410A54205D170BD56F825309847013514
:105A3C00EEE756F8253098470135F2E75C6200082E
:105A4C005C6200085C62000860620008F8B500BF88
:105A5C00F8BC08BC9E467047F8B500BFF8BC08BC43
:045A6C009E4670479B
:105A700002030405060708090A0B0C0D0E0F10108F
:105A80000102000048656C6C6F204C7268000000D9
:105A900000000000000000000102030406070809DE
:105AA00000000000010203040000000000000000EC
:105AB00000000000000000000000000000100010C6
:105AC0000010001000100010000000100000000086
